:0400000080313628ED
:100008007E14803140017F08F1004E01961A8C1E43
:1000180031280130F0007008F70704307702031C1C
:100028001828F901F90AF7010130F0007008F607FD
:100038007E307602031C2F284001180C0139F0008D
:100048000130F006F00D18087006FD3970069800AA
:10005800F801F80AF6014E018C1671084001FF00FC
:100068007E10090080313828F601F701F801F901FE
:100078007E104001803140281B30F2007208F500E4
:10008800F301F40151018D018F01910106309300B4
:10009800920140019601970198017E01B901C401BE
:1000A800CF01FF30B800C301CE0140019101920198
:1000B8002130930098109E011F08F03908389F00DE
:1000C8001F081F3940389F009E174E018C12961644
:0600D8000B178B176E28C8
:020000040001F9
:0A000E008C3FFE3B9F3FFF1FFF3FAA
:00000001FF
